{
  "_format": "hh-sol-artifact-1",
  "contractName": "GreenCredit",
  "sourceName": "contracts/GreenCredit.sol",
  "abi": [
    {
      "inputs": [],
      "stateMutability": "nonpayable",
      "type": "constructor"
    },
    {
      "stateMutability": "payable",
      "type": "fallback"
    },
    {
      "inputs": [
        {
          "internalType": "uint256",
          "name": "amount",
          "type": "uint256"
        }
      ],
      "name": "buyCredits",
      "outputs": [],
      "stateMutability": "payable",
      "type": "function"
    },
    {
      "inputs": [
        {
          "internalType": "address",
          "name": "",
          "type": "address"
        }
      ],
      "name": "credits",
      "outputs": [
        {
          "internalType": "uint256",
          "name": "",
          "type": "uint256"
        }
      ],
      "stateMutability": "view",
      "type": "function"
    },
    {
      "inputs": [
        {
          "internalType": "address",
          "name": "to",
          "type": "address"
        },
        {
          "internalType": "uint256",
          "name": "amount",
          "type": "uint256"
        }
      ],
      "name": "issueCredit",
      "outputs": [],
      "stateMutability": "nonpayable",
      "type": "function"
    },
    {
      "inputs": [],
      "name": "owner",
      "outputs": [
        {
          "internalType": "address",
          "name": "",
          "type": "address"
        }
      ],
      "stateMutability": "view",
      "type": "function"
    },
    {
      "inputs": [
        {
          "internalType": "uint256",
          "name": "amount",
          "type": "uint256"
        }
      ],
      "name": "retireCredits",
      "outputs": [],
      "stateMutability": "nonpayable",
      "type": "function"
    },
    {
      "inputs": [
        {
          "internalType": "uint256",
          "name": "amount",
          "type": "uint256"
        }
      ],
      "name": "sellCredits",
      "outputs": [],
      "stateMutability": "nonpayable",
      "type": "function"
    },
    {
      "inputs": [
        {
          "internalType": "address",
          "name": "to",
          "type": "address"
        },
        {
          "internalType": "uint256",
          "name": "amount",
          "type": "uint256"
        }
      ],
      "name": "transferCredit",
      "outputs": [],
      "stateMutability": "nonpayable",
      "type": "function"
    },
    {
      "stateMutability": "payable",
      "type": "receive"
    }
  ],
  "bytecode": "0x608060405234801561001057600080fd5b5033600160006101000a81548173ffffffffffffffffffffffffffffffffffffffff021916908373ffffffffffffffffffffffffffffffffffffffff160217905550610a9e806100616000396000f3fe6080604052600436106100745760003560e01c80637719acc61161004e5780637719acc6146100eb5780638da5cb5b14610114578063cc58a6bb1461013f578063fe5ff468146101685761007b565b80630c4dfe3f1461007d5780632039e3391461009957806322ff23e3146100c25761007b565b3661007b57005b005b610097600480360381019061009291906106ee565b6101a5565b005b3480156100a557600080fd5b506100c060048036038101906100bb91906106ee565b610252565b005b3480156100ce57600080fd5b506100e960048036038101906100e491906106ee565b61032b565b005b3480156100f757600080fd5b50610112600480360381019061010d9190610779565b61045d565b005b34801561012057600080fd5b50610129610546565b60405161013691906107c8565b60405180910390f35b34801561014b57600080fd5b5061016660048036038101906101619190610779565b61056c565b005b34801561017457600080fd5b5061018f600480360381019061018a91906107e3565b61069b565b60405161019c919061081f565b60405180910390f35b66038d7ea4c68000816101b89190610869565b3410156101fa576040517f08c379a00000000000000000000000000000000000000000000000000000000081526004016101f190610908565b60405180910390fd5b806000803373ffffffffffffffffffffffffffffffffffffffff1673ffffffffffffffffffffffffffffffffffffffff16815260200190815260200160002060008282546102489190610928565b9250508190555050565b806000803373ffffffffffffffffffffffffffffffffffffffff1673ffffffffffffffffffffffffffffffffffffffff1681526020019081526020016000205410156102d3576040517f08c379a00000000000000000000000000000000000000000000000000000000081526004016102ca906109a8565b60405180910390fd5b806000803373ffffffffffffffffffffffffffffffffffffffff1673ffffffffffffffffffffffffffffffffffffffff168152602001908152602001600020600082825461032191906109c8565b9250508190555050565b806000803373ffffffffffffffffffffffffffffffffffffffff1673ffffffffffffffffffffffffffffffffffffffff1681526020019081526020016000205410156103ac576040517f08c379a00000000000000000000000000000000000000000000000000000000081526004016103a3906109a8565b60405180910390fd5b806000803373ffffffffffffffffffffffffffffffffffffffff1673ffffffffffffffffffffffffffffffffffffffff16815260200190815260200160002060008282546103fa91906109c8565b925050819055503373ffffffffffffffffffffffffffffffffffffffff166108fc66038d7ea4c680008361042e9190610869565b9081150290604051600060405180830381858888f19350505050158015610459573d6000803e3d6000fd5b5050565b600160009054906101000a900473ffffffffffffffffffffffffffffffffffffffff1673ffffffffffffffffffffffffffffffffffffffff163373ffffffffffffffffffffffffffffffffffffffff16146104ed576040517f08c379a00000000000000000000000000000000000000000000000000000000081526004016104e490610a48565b60405180910390fd5b806000808473ffffffffffffffffffffffffffffffffffffffff1673ffffffffffffffffffffffffffffffffffffffff168152602001908152602001600020600082825461053b9190610928565b925050819055505050565b600160009054906101000a900473ffffffffffffffffffffffffffffffffffffffff1681565b806000803373ffffffffffffffffffffffffffffffffffffffff1673ffffffffffffffffffffffffffffffffffffffff1681526020019081526020016000205410156105ed576040517f08c379a00000000000000000000000000000000000000000000000000000000081526004016105e4906109a8565b60405180910390fd5b806000803373ffffffffffffffffffffffffffffffffffffffff1673ffffffffffffffffffffffffffffffffffffffff168152602001908152602001600020600082825461063b91906109c8565b92505081905550806000808473ffffffffffffffffffffffffffffffffffffffff1673ffffffffffffffffffffffffffffffffffffffff16815260200190815260200160002060008282546106909190610928565b925050819055505050565b60006020528060005260406000206000915090505481565b600080fd5b6000819050919050565b6106cb816106b8565b81146106d657600080fd5b50565b6000813590506106e8816106c2565b92915050565b600060208284031215610704576107036106b3565b5b6000610712848285016106d9565b91505092915050565b600073ffffffffffffffffffffffffffffffffffffffff82169050919050565b60006107468261071b565b9050919050565b6107568161073b565b811461076157600080fd5b50565b6000813590506107738161074d565b92915050565b600080604083850312156107905761078f6106b3565b5b600061079e85828601610764565b92505060206107af858286016106d9565b9150509250929050565b6107c28161073b565b82525050565b60006020820190506107dd60008301846107b9565b92915050565b6000602082840312156107f9576107f86106b3565b5b600061080784828501610764565b91505092915050565b610819816106b8565b82525050565b60006020820190506108346000830184610810565b92915050565b7f4e487b7100000000000000000000000000000000000000000000000000000000600052601160045260246000fd5b6000610874826106b8565b915061087f836106b8565b925082820261088d816106b8565b915082820484148315176108a4576108a361083a565b5b5092915050565b600082825260208201905092915050565b7f4e6f7420656e6f756768204554482073656e7400000000000000000000000000600082015250565b60006108f26013836108ab565b91506108fd826108bc565b602082019050919050565b60006020820190508181036000830152610921816108e5565b9050919050565b6000610933826106b8565b915061093e836106b8565b92508282019050808211156109565761095561083a565b5b92915050565b7f4e6f7420656e6f75676820637265646974730000000000000000000000000000600082015250565b60006109926012836108ab565b915061099d8261095c565b602082019050919050565b600060208201905081810360008301526109c181610985565b9050919050565b60006109d3826106b8565b91506109de836106b8565b92508282039050818111156109f6576109f561083a565b5b92915050565b7f4f6e6c79206f776e65722063616e206973737565206372656469747300000000600082015250565b6000610a32601c836108ab565b9150610a3d826109fc565b602082019050919050565b60006020820190508181036000830152610a6181610a25565b905091905056fea2646970667358221220d328e5d3031122dd397e512e56a44bb160684475d943a4cf677c086ae5e8899464736f6c63430008180033",
  "linkReferences": {},
  "deployedLinkReferences": {}
}